:020000040800F2
:1000000000040020CF1B0008111F0008131F000868
:10001000171F00081B1F00081F1F0008000000001A
:10002000000000000000000000000000231F000886
:10003000251F000800000000271F0008291F0008D6
:10004000EF1B0008EF1B0008EF1B0008EF1B000868
:10005000EF1B0008EF1B0008EF1B0008EF1B000858
:10006000EF1B0008EF1B0008EF1B0008EF1B000848
:10007000EF1B0008EF1B0008EF1B0008EF1B000838
:10008000EF1B0008EF1B0008EF1B0008EF1B000828
:10009000EF1B0008EF1B0008EF1B0008EF1B000818
:1000A000EF1B0008EF1B0008EF1B0008EF1B000808
:1000B000911F0008EF1B0008EF1B0008EF1B000852
:1000C000EF1B0008EF1B0008EF1B0008EF1B0008E8
:1000D000EF1B0008311F0008EF1B0008EF1B000892
:1000E000EF1B0008EF1B0008EF1B0008EF1B0008C8
:1000F000EF1B0008EF1B0008EF1B0008EF1B0008B8
:10010000EF1B0008EF1B0008EF1B0008EF1B0008A7
:10011000EF1B0008EF1B0008EF1B0008EF1B000897
:10012000EF1B0008EF1B0008EF1B0008EF1B000887
:1001300000F002F800F04AF80AA090E8000C8244AF
:100140008344AAF10107DA4501D100F03FF8AFF28C
:10015000090EBAE80F0013F0010F18BFFB1A43F0A5
:10016000010318476C2700008C2700000A4410F890
:10017000014B14F00F0508BF10F8015B240908BFFC
:1001800010F8014B6D1E05D010F8013B6D1E01F8F3
:10019000013BF9D1641E03D0641E01F8015BFBD161
:1001A0009142E4D37047000000230024002500267C
:1001B000103A28BF78C1FBD8520728BF30C148BFCA
:1001C0000B6070471FB51FBD10B510BD02F035FBA9
:1001D0001146FFF7F7FF01F030FE02F053FB03B4C6
:1001E000FFF7F2FF03BC02F057FB00003149014367
:1001F000314A1160704770B5002100230F22C47886
:100200000CB32D4C246804F4E064C4F5E064210AC6
:10021000C1F10403CA40447804FA03F1847814401D
:1002200021430901254C0678A155047804F01F05E7
:100230000124AC4005786D114FF0E02606EB8505F2
:10024000C5F8004109E0047804F01F050124AC4022
:100250001B4D0678761145F8264070BD194A0A40B4
:100260000243154B1B1F1A60704739B1124A121D09
:1002700012680243104B1B1D1A6006E00E4A121D45
:10028000126882430C4B1B1D1A607047042808D16A
:100290004FF0E021096941F004014FF0E0221161C3
:1002A00007E04FF0E021096921F004014FF0E0225E
:1002B000116170470000FA050CED00E000E400E079
:1002C00080E100E080FFFF1F10B50446C549601AB9
:1002D0008C422FD009DCC448201810D0B0F5806FB4
:1002E00016D0B0F5006F4AD11BE0B0F5806F2AD070
:1002F000B0F5006F30D0B0F5406F40D135E001214E
:10030000042000F0F9FA0021042000F0F5FA37E0AB
:100310000121082000F0F0FA0021082000F0ECFA9A
:100320002EE00121102000F0E7FA0021102000F05B
:10033000E3FA25E00121202000F0DEFA0021202050
:1003400000F0DAFA1CE00121402000F0D5FA00218B
:10035000402000F0D1FA13E00121802000F0CCFA17
:100360000021802000F0C8FA0AE00121080200F014
:10037000C3FA00214FF4807000F0BEFA00E000BF25
:1003800000BF10BD10B50121084600F0B5FA0021EC
:10039000012000F0B1FA10BD2DE9F0410246002520
:1003A0000026002000230024002791F803C00CF051
:1003B0000F0591F803C01CF0100F03D091F802C094
:1003C0004CEA050591F800C0BCF1000F31D014686B
:1003D00000202BE04FF0010C0CFA00F3B1F800C044
:1003E0000CEA03069E4220D183004FF00F0C0CFA5A
:1003F00003F7BC4305FA03FC4CEA040491F803C07C
:10040000BCF1280F06D14FF0010C0CFA00FCC2F829
:1004100014C00AE091F803C0BCF1480F05D14FF0B9
:10042000010C0CFA00FCC2F810C0401C0828D1D303
:100430001460B1F800C0BCF1FF0F34DD5468002037
:100440002EE000F1080C4FF0010808FA0CF3B1F8A7
:1004500000C00CEA03069E4221D183004FF00F0C2E
:100460000CFA03F7BC4305FA03FC4CEA040491F8C8
:1004700003C0BCF1280F05D100F1080C08FA0CF8F4
:10048000C2F8148091F803C0BCF1480F07D100F105
:10049000080C4FF0010808FA0CF8C2F81080401C54
:1004A0000828CED35460BDE8F0814FF6FF7101807B
:1004B000022181700421C1707047024600209368B8
:1004C0000B4201D0012000E00020704701468868FF
:1004D00080B2704702460020D3680B4201D0012051
:1004E00000E0002070470146C86880B27047016193
:1004F0007047416170470AB1016100E04161704796
:10050000C16070474FF480320A4382618161826129
:1005100082698269704702460020344B18684FF6A2
:100520008073184040EA02100843304B186070474F
:100530002F49C8617047F0B50A4600230024002106
:1005400000252A4E7168C0F3034583B200F44016BB
:10055000B6F5401F08D121F07061244E766826F070
:100560007066224F7E6012E000F48016B6F5801FA0
:1005700006D1032606FA05F4A14341F0706106E0B6
:10058000460D360103FA06F6B14341F0706122B11F
:10059000460D360103FA06F63143144E7160F0BD84
:1005A00030B500228B071C0F0F2303FA04F20F4B08
:1005B00008338C1053F8243093430C4C08348D10BE
:1005C00044F8253023468C1053F824308C07240F30
:1005D00000FA04F42343054C08348D1044F8253008
:1005E00030BD00000014014000F8FEBF00000140D3
:1005F00000002042DC48006840F00100DA49086051
:1006000008464068D9490840D7494860084600680C
:10061000D7490840D44908600846006820F4802083
:1006200008600846406820F4FE00486000208860AA
:100630007047CD49096821F48031CB4A11601146D9
:10064000096821F480211160B0F5803F03D0B0F536
:10065000802F0ED106E0C449096841F48031C24AB6
:10066000116007E0C049096841F4A021BE4A116049
:1006700000E000BF00BF704710B501460022002314
:1006800000204A11012A02D1B74C236806E0022A51
:1006900002D1B54C236A01E0B34C636A01F01F023A
:1006A000012494401C4201D0012000E0002010BD34
:1006B00038B5002000900024002500BF3120FFF74E
:1006C000DBFF05460098401C00901DB90098B0F56E
:1006D000A06FF3D13120FFF7CFFF08B1012400E074
:1006E0000024204638BD014600209F4A106820F0B3
:1006F000F80040EAC100106070479E4908607047EA
:1007000002460020984B586820F47C1042EA01030E
:100710001843954B586070479649086670470146E4
:100720000020914A506820F0030008435060704751
:100730008D48406800F00C007047014600208A4A4E
:10074000506820F0F00008435060704701460020D8
:10075000854A506820F4E0600843506070470146C5
:100760000020814A506820F4605040EAC100506087
:10077000704729B17C4A527A02437B4B5A7204E09B
:10078000794A527A8243784B5A7270477A490860A4
:10079000704701460020744A506820F440400843E6
:1007A000506070470021754A11706F4A82F820101E
:1007B000012802D0042808D103E001216F4A1170FA
:1007C00004E005216D4A117000E000BF00BF7047D2
:1007D0006B49086070476449096A0143624A1162C3
:1007E0007047674944390860704730B500210022DE
:1007F000002400235C4D6D6805F00C0121B1042933
:1008000005D0082923D105E05E4D056022E05D4D4D
:1008100005601FE0544D6D6805F47012022505EB6C
:100820009242514D6D6805F480341CB9564D5543C4
:1008300005600BE04C4D6D6815F4003F03D0524D40
:100840005543056002E04F4D5543056002E04D4DB4
:10085000056000BF00BF444D6D6805F0F001090957
:100860004A4D6B5C0568DD4045603F4D6D6805F4A1
:10087000E061090A454D6B5C4568DD4085603A4D95
:100880006D6805F46051C90A404D6B5C4568DD40F8
:10089000C560354D6D6805F44041890B3C4D6B5C7E
:1008A000C568B5FBF3F5056130BD29B12E4A526923
:1008B00002432D4B5A6104E02B4A526982432A4B72
:1008C0005A61704729B1284A92690243264B9A61BE
:1008D00004E0254A92698243234B9A61704729B10B
:1008E000214AD2690243204BDA6104E01E4AD269F0
:1008F00082431D4BDA61704729B11B4AD26802431B
:10090000194BDA6004E0184AD2688243164BDA6069
:10091000704729B1144A12690243134B1A6104E06B
:10092000114A12698243104B1A61704714494039C9
:10093000086070470F49C86470470B49C871704719
:100940000948406A40F08070074948627047014694
:100950000020054A92680A4201D0012000E00020F0
:100960007047014988727047001002400000FFF88C
:10097000FFFFF6FE00004242D80042422010024033
:100980008004424200127A0000093D00000000206D
:100990001000002010B50446BD4820180FD0B0F557
:1009A000806F16D0B0F5784F1DD101210803FFF7F5
:1009B000A3FF00214FF48050FFF79EFF14E00121B8
:1009C0008803FFF7A6FF00214FF48040FFF7A1FF47
:1009D0000AE00121C803FFF79CFF00214FF400400B
:1009E000FFF797FF00E000BF00BF10BD10B5002269
:1009F000028802F441520B884C8823438C8823439D
:100A0000CC8823430C8923434C8923438C8923437B
:100A1000CC8923431A430280838B4FF2FF74234017
:100A200083830B8A038210BD2DE9F04786B005460B
:100A30000C464FF0000902274FF000084FF0010A62
:100A40000026A88B4FF240010840A883022028848A
:100A5000B5F81C902089022801D100BF31E0A088A0
:100A600010B94FF0010A01E04FF0020A01A8FFF7A8
:100A7000BCFEE088B0F5007F0AD1019800EB800051
:100A8000400021890902B0FBF1F0401D86B20BE065
:100A90004FEA4A1021894843019901EB810149003D
:100AA000B1FBF0F0401D86B20A20B6FBF0F606F06E
:100AB0000108A6EB0800C0F34F074FF6FF7000EAED
:100AC0000828022F01DBFF2F02DD02274FF000086C
:100AD00047EA0800E18808432884208840F4006041
:100AE00061880843A18808436189084340EA0909ED
:100AF000A5F81C9006B0BDE8F08700210180418078
:100B00008180C180018141818181C1810721018270
:100B100070470021018041808180C18002210181D4
:100B200000214181704721B1028842F040020280D9
:100B300004E002884FF6BF731A400280704721B16B
:100B4000828B42F48062828304E0828B4FF6FF3313
:100B50001A408283704730B5002400230C11012510
:100B6000A540ABB21AB185881D43858002E0858817
:100B70009D43858030BD1AB183880B43838002E09A
:100B800083888B43838070478181704701468889C1
:100B90007047A1F57E42FF3A04D0028842F4807289
:100BA000028004E002884FF6FF631A40028070471B
:100BB00021B1828842F00402828004E082884FF6EC
:100BC000FB731A408280704702884FF2FF731A400D
:100BD000028002880A4302807047018841F48051F4
:100BE0000180704721B1028842F40052028004E083
:100BF00002884DF6FF731A400280704702460020BB
:100C0000012901D0108B00E0908A70470146088AC4
:100C10007047B1F5804F04D1028842F480420280CF
:100C200004E002884BF6FF731A40028070470246C8
:100C3000002013890B4201D0012000E00020704702
:100C4000CA4302817047F0B5024600200024002309
:100C5000002501F00F070126BE40B4B20B1101269A
:100C60009E40B3B2968806EA03051689264202D052
:100C70000DB1012000E00020F0BD10B5002201F010
:100C80000F040123A3409AB2D343038110BD000097
:100C900000C8FFBF10B50446F749601A8C4245D022
:100CA0000CDCB4F1804F1DD0F448201823D0B0F5EF
:100CB000806F29D0B0F5006F54D12EE0B0F5806F71
:100CC0003DD0B0F58E3F03D0B0F5923F4AD13FE022
:100CD0000121C802FFF710FE00214FF40060FFF76A
:100CE0000BFE40E001210846FFF713FE0021012022
:100CF000FFF70FFE37E001210220FFF70AFE002177
:100D00000220FFF706FE2EE001210420FFF701FE7E
:100D100000210420FFF7FDFD25E001210820FFF759
:100D2000F8FD00210820FFF7F4FD1CE00121102050
:100D3000FFF7EFFD00211020FFF7EBFD13E001218D
:100D40002020FFF7E6FD00212020FFF7E2FD0AE06A
:100D500001214803FFF7D0FD00214FF40050FFF7B9
:100D6000CBFD00E000BF00BF10BD028802F08F0283
:100D70000280CA884B881A4303881A4302808A88F3
:100D800082850A880285BE4A904202D0BD4A9042BE
:100D900001D10A7A028601228282704770B500244E
:100DA00000220023058C4FF6FE7635400584028C28
:100DB0008388048B4FF68F752C400D882C43751E4D
:100DC0002A400D892A434D882A43CD888586AC4D1B
:100DD000A84202D0AB4DA84213D14FF6F7752A4076
:100DE0004D892A434FF6FB752A408D882A4347F6E2
:100DF000FF652B4047F6FF552B408D892B43CD894E
:100E00002B4383800483028470BD70B500240022CC
:100E10000023058C4FF6EF7635400584028C8388DD
:100E2000048B48F6FF752C400D884FF6FF7606EAD6
:100E300005252C434FF6DF752A400D8906EA051576
:100E40002A434D8806EA05152A43CD8805878C4D2F
:100E5000A84202D08B4DA8421DD14FF67F752A4083
:100E60004D894FF6FF7606EA05152A434FF6BF7502
:100E70002A408D8806EA05152A4347F6FF352B40A0
:100E800047F2FF752B408D8906EA85052B43CD89F6
:100E900006EA85052B4383800483028470BD70B508
:100EA000002400220023058C4FF6FF6635400584A0
:100EB000028C8388848B4FF68F752C400D882C43D1
:100EC0004FF6FF552A400D894FF6FF7606EA0525B5
:100ED0002A434D8806EA05252A43CD888587684D33
:100EE000A84202D0674DA8421DD14FF2FF752A409B
:100EF0004D894FF6FF7606EA05252A434FF6FF3562
:100F00002A408D8806EA05252A4346F6FF752B40C0
:100F100045F6FF752B408D8906EA05152B43CD89D3
:100F200006EA05152B4383808483028470BD70B567
:100F3000002400220023058C4EF6FF763540058400
:100F4000028C8388848B48F6FF752C400D884FF601
:100F5000FF7606EA05252C434DF6FF752A400D89DC
:100F600006EA05352A434D8806EA05352A43CD8829
:100F7000A0F84050424DA84202D0424DA84207D1AD
:100F8000C3F30D038D894FF6FF7606EA85152B43D3
:100F900083808483028470BD828B4FF2FF331A40BA
:100FA0008283828B4FF6FF7303EA01231A43828305
:100FB0007047F0B50C461546002100220026078C2C
:100FC0004EF6FF7C07EA0C070784818B028C4FF6F4
:100FD000FF7707EA043640F6FF4739404FF6FF77C0
:100FE00007EA05274FF6FF7C0CEA033C47EA0C07AB
:100FF00039434DF6FF773A4046F480573A438183B0
:101000000284F0BD828B4FF6F3731A408283828B89
:101010000A4382837047F0B50C4615460021002232
:101020000026078C4FF6FF6C07EA0C070784818BBC
:10103000028C4FF6FF7707EA04264FF60C7739400B
:101040004FF6FF7707EA03172F4339434FF6FF5751
:101050003A4046F480773A4381830284F0BD028BA4
:101060004FF2FF331A400283028B4FF6FF7303EAFD
:1010700001231A43028370470010004000FCFFBFA9
:10108000002C014000340140F0B50C46154600210B
:1010900000220026078C4FF6EF7C07EA0C07078436
:1010A000018B028C4FF6FF7707EA041640F6FF47E4
:1010B00039404FF6FF7707EA033739434FF6FF779A
:1010C00007EA052739434FF6DF773A4046F0100725
:1010D0003A4301830284F0BD028B4FF6F3731A404A
:1010E0000283028B0A4302837047F0B50C46154613
:1010F00000210022068C4FF6FE773E400684018BCD
:10110000028C4FF60C7631407E1C06EA03162E4305
:1011100031437E1E324044F0010632430183028493
:10112000F0BD70B505460C46208850B92389A288C9
:1011300061882846FFF7D9FFE1882846FFF7CCFFF2
:1011400025E0208804280AD12389A28861882846BE
:10115000FFF79AFFE1882846FFF781FF17E0208814
:1011600008280AD12389A28861882846FFF753FFFF
:10117000E1882846FFF746FF09E02389A2886188B5
:101180002846FFF716FFE1882846FFF705FF70BDE8
:101190002DE9F04105460C4600260127608808B974
:1011A000022600E00026A088012801D1022700E0E5
:1011B00001272088A0B92389A28861882846FFF7E3
:1011C00094FFE1882846FFF787FF23893A46314696
:1011D0002846FFF759FFE1882846FFF740FF13E054
:1011E0002389A28861882846FFF74EFFE1882846B8
:1011F000FFF735FF23893A4631462846FFF775FF4A
:10120000E1882846FFF768FFBDE8F0810A884B882F
:101210001A438B881A43CB881A430B891A434B898C
:101220001A438B891A43A0F8442070474FF6FF7188
:10123000818000210180C1804180017270470021BE
:10124000018041808180C180018141818181C18192
:101250007047002101804180012181800021C180EF
:10126000018170470021018041808180C18001811E
:1012700041818181704721B1028842F001020280E0
:1012800004E0028840F2FE331A400280704731B118
:10129000B0F8442042F40042A0F8442005E0B0F841
:1012A0004420C2F30E02A0F8442070471AB183898B
:1012B0000B43838102E083898B4383817047818262
:1012C000704741EA0203A0F8483070471AB1838999
:1012D0000B43838102E083898B43838170470189BB
:1012E0004FF6F8721140018170470A4600210189CA
:1012F0004FF68F73194011430181704730B5044692
:101300000D4629462046FFF7F0FF208940F00700F0
:10131000208130BD2DE9F04104460D4616461F469A
:10132000602D06D13B46012231462046FFF7ACFE38
:1013300005E03B46012231462046FFF7D6FE29460E
:101340002046FFF7D2FF208940F007002081BDE84A
:10135000F08170B50C4600210189C9B244EA02054A
:101360004FF6FF7606EA032635432943018170BD17
:101370002DE9F04105460E4617469846002443469F
:101380003A4631462846FFF7E4FF2C894FF6F870BD
:10139000044044F007044FF68F70044044F070049A
:1013A0002C81BDE8F081F0B504460D4616461F4677
:1013B0003B46324629462046FFF7CBFF208940F4C2
:1013C00080402081F0BD0185828270470A4600215D
:1013D000018840F28F331940114301807047F0B506
:1013E0000C4615461E460021002200230189028B6F
:1013F000038C4FF6F877394021434FF6FC473A40CB
:1014000040F201173A434FF6DD773B404FF6FF7746
:1014100007EA06172F433B43018102830384F0BD93
:101420000A460021018B4FF68F7319401143018347
:1014300070470A460021018B48F6FF7319404FF6AA
:10144000FF7303EA02231943018370470A46002110
:10145000818B4FF68F7319401143818370470A4681
:101460000021818B48F6FF7319404FF6FF7303EAA2
:10147000022319438183704721B1028842F0800220
:10148000028004E0028840F27F331A4002807047F5
:1014900021B1828842F00402828004E082884FF603
:1014A000FB731A408280704721B1828842F00802A3
:1014B000828004E082884FF6F7731A40828070477A
:1014C00021B1828842F00102828004E082884FF6D6
:1014D000FE731A40828070470A460021018B4FF646
:1014E000F77319401143018370470A460021018BAD
:1014F0004FF2FF7319404FF6FF7303EA02231943BB
:10150000018370470A460021818B4FF6F77319401B
:101510001143818370470A460021818B4FF2FF738C
:1015200019404FF6FF7303EA022319438183704782
:101530000A460021018B4FF6FB73194011430183CA
:1015400070470A460021018B4FF6FF3319404FF6D2
:10155000FF7303EA02231943018370470A460021FF
:10156000818B4FF6FB7319401143818370470A4604
:101570000021818B4FF6FF3319404FF6FF7303EACA
:1015800002231943818370470A460021018B4FF6DD
:101590007F7319401143018370470A460021018B74
:1015A000C1F30E014FF6FF7303EA022319430183CF
:1015B00070470A460021818B4FF67F731940114313
:1015C000818370470A460021818BC1F30E014FF6DB
:1015D000FF7303EA02231943818370470A460021FF
:1015E000018C4FF6FD7319401143018470470A4680
:1015F0000021018C4FF6F7731940114301847047A5
:101600000A460021018C4FF6DF7319404FF6FF7335
:1016100003EA02131943018470470A460021018C32
:101620004FF67F7319404FF6FF7303EA0213194315
:10163000018470470A460021018C4FF6FF53194080
:101640004FF6FF7303EA02231943018470470A46E9
:101650000021018C4FF2FF7319404FF6FF7303EA2C
:1016600002231943018470470A460021018C4DF67C
:10167000FF7319404FF6FF7303EA023319430184E5
:10168000704710B5038C01248C40A3430384038C62
:1016900002FA01F4A4B22343038410BD10B5038CF5
:1016A00004248C40A3430384038C02FA01F4A4B203
:1016B0002343038410BD30B5038C01248C40A34325
:1016C000038409B1082918D100F1180303EB610361
:1016D0001B684FF68F74234000F1180404EB61047B
:1016E000236000F1180303EB61031B68134300F14F
:1016F000180404EB610423601FE00B1FC3F34E04C6
:1017000000F118031B5948F6FF7423400C1FC4F363
:101710004E0500F1180463510B1FC3F34E0400F192
:1017200018031B594FF6FF7404EA022423430C1FCD
:10173000C4F34E0500F11804635130BD21B1028895
:1017400042F00202028004E0028840F2FD331A40B7
:101750000280704721B1028842F00402028004E056
:10176000028840F2FB331A400280704721B1828820
:1017700042F08002828004E082884FF67F731A4034
:1017800082807047028840F2F7331A400280028854
:101790000A430280704782884FF68F731A40828016
:1017A00082880A438280704702894FF6F8731A4094
:1017B000028102890A430281704702894FF67F73D2
:1017C0001A40028102890A4302817047818470476E
:1017D0008185704781867047018770478187704790
:1017E000A0F8401070470288D2B2028002880A43F3
:1017F000028070470146888E70470146088F704707
:101800000146888F70470146B1F840007047014695
:10181000888C70470146088D704702460020138A65
:101820000B4201D0012000E000207047CA43028231
:10183000704730B50246002000230024158A05EACF
:101840000103958905EA010413B10CB1012000E000
:10185000002030BDCA4302827047000010B5044624
:10186000D749601A8C422BD006DCD648201813D0FA
:10187000B0F5806F38D119E0B0F5806F2AD0B0F59F
:101880006C4F31D101218803FFF736F800214FF466
:101890008040FFF731F828E001214804FFF739F8CC
:1018A00000214FF40030FFF734F81EE001218804D6
:1018B000FFF72FF800214FF48020FFF72AF814E0FB
:1018C0000121C804FFF725F800214FF40020FFF79D
:1018D00020F80AE001210805FFF71BF800214FF46A
:1018E0008010FFF716F800E000BF00BF10BD2DE923
:1018F000F04786B005460E460024A24600BF00BF52
:1019000000272F462C8A4CF6FF700440F0880443D1
:101910002C82AC894EF6F3100440B088318908431C
:10192000718908430443AC81AC8A4FF6FF40044000
:10193000B0890443AC8201A8FEF757FFA248874252
:1019400002D1DDF810A001E0DDF80CA00AEBCA001E
:1019500000EB0A1031688900B0FBF1F86420B8FB95
:10196000F0F004012009642101FB1089322000EB12
:101970000910B0FBF1F000F00F0004432C8106B019
:10198000BDE8F0874FF41651016000218180C180CD
:1019900001810C21418100218181704710B50246EF
:1019A0000020108A4FF2FF0318400B884C88234315
:1019B0008C882343CC8823431843108210BD002118
:1019C000018041808180C180704721B1828942F4C9
:1019D0000052828104E082894DF6FF731A408281B1
:1019E0007047F0B503460024002600250020184665
:1019F000C1F3421401F01F06012707FA06F5012C76
:101A000001D10C3004E0022C01D1103000E0143080
:101A10001AB107682F43076002E00768AF43076009
:101A2000F0BD1AB1838A0B43838202E0838A8B4321
:101A300083827047028A4FF6F0731A400282028A4C
:101A40000A430282704782894FF2FF731A408281F3
:101A500082890A438281704721B1828942F0020261
:101A6000828104E082894FF6FD731A4082817047BB
:101A7000028A4FF6DF731A400282028A0A43028208
:101A8000704721B1028A42F48042028204E0028A55
:101A90004BF6FF731A4002827047C1F3080282803E
:101AA000704701468888C0F308007047818941F07B
:101AB000010181817047028BD2B20283028B42EA1C
:101AC000012202837047028B02F47F420283028B61
:101AD0000A430283704721B1828A42F02002828247
:101AE00004E0828A4FF6DF731A408282704721B188
:101AF000828A42F01002828204E0828A4FF6EF73FB
:101B00001A408282704721B1828A42F008028282A2
:101B100004E0828A4FF6F7731A4082827047828A05
:101B20004FF6FB731A408282828A0A438282704790
:101B300021B1828A42F00202828204E0828A4FF658
:101B4000FD731A40828270470246002013880B42C0
:101B500001D0012000E000207047CA430280704796
:101B600070B502460B460024002100250020C3F377
:101B7000421503F01F01012606FA01F1012D02D1E1
:101B80009689314006E0022D02D1168A314001E0EB
:101B9000968A31401C12012606FA04F41688344055
:101BA00011B10CB1012000E0002070BD10B5002281
:101BB00000230A1201249440A3B2DC43048010BD28
:101BC000004C004000BCFFBF0038014070470B488C
:101BD00080470B4981F308880A480047FEE7FEE783
:101BE000FEE7FEE7FEE7FEE7FEE7FEE7FEE7FEE7CD
:101BF00005480649044A064B70470000CD1B000803
:101C00009004002031010008900200209004002080
:101C1000900200200CB50020019000904748006819
:101C200040F480304549086000BF4448006800F433
:101C3000003000900198401C0190009818B901985C
:101C4000B0F5A06FF1D13D48006810F4003F02D01C
:101C50000120009001E0002000900098012843D16D
:101C60003748006840F010003549086008460068B1
:101C700020F0030008600846006840F00200086099
:101C80002E4840682D49486008464068486008462C
:101C9000406840F4806048600846406820F47C104A
:101CA00048600846406840F4E8104860084600680C
:101CB00040F08070086000BF2048006810F0007F8E
:101CC000FAD01E48406820F003001C4948600846CE
:101CD000406840F00200486000BF1848406800F0CB
:101CE0000C000828F9D101E000BFFEE70CBD10B5DB
:101CF000FFF790FF10BD10B51048006840F00100DC
:101D00000E490860084640680E4908400B49486083
:101D1000084600680C490840084908600846006801
:101D200020F4802008600846406820F4FE004860E7
:101D300000208860FFF7DBFF10BD000000100240AC
:101D4000002002400000FFF8FFFFF6FE002000E048
:101D5000401C40F6FF718842FAD3704710B56048C6
:101D6000007868B302215F48FEF7A7FB58B14FF433
:101D700000515C48FEF7A1FB28B101215A48FEF74B
:101D80009CFB01281CD10A2000F0FAFA00205449DB
:101D9000087002215348FEF790FB08B9012010BDDE
:101DA0004FF400514F48FEF788FB08B90220F6E7D0
:101DB00001214D48FEF781FB012815D10320EEE7F4
:101DC00002214848FEF779FB01280DD1410345481F
:101DD000FEF773FB012807D101214348FEF76DFB95
:101DE00010B901203E4908700020D8E778B93F4972
:101DF000096881F001013E4AC2F8A0113D49D1F8BD
:101E0000B01181F001013B4AC2F8B0117047411E88
:101E1000C8B238B93549096881F00101344AC2F8BD
:101E2000A01108E0012806D13349096881F00101B9
:101E3000304AC2F8B01100BFE8E7FFF75CFF00F0DE
:101E40004EF900F05AF900F0F5F800F06FFA00F0E2
:101E50001DFA2A482A49086000F076F900F093F943
:101E600000F000FB00BF00F0C8FB0028FBD100F031
:101E700072FC33E02349244800F03BFCF8B92248C7
:101E800000780F2805D14FF480711748FEF731FB19
:101E900004E04FF480711448FEF729FBC82000F0DD
:101EA0006FFA184800780F2804D104211748FEF76C
:101EB00020FB07E004211548FEF719FB02E0012092
:101EC00000F05EFA4FF480710748FEF710FB042122
:101ED0000E48FEF70CFB142000F052FACAE700008F
:101EE000180100200010014000080140A00121421B
:101EF0000000214200802242B081224230010020B5
:101F00001C010020240100202301002000140140B6
:101F1000704700BFFEE700BFFEE700BFFEE700BF5F
:101F2000FEE770477047704710B500F031FA10BDFA
:101F300010B501213648FEF7C0FA012804D104216A
:101F40003448FEF7D6FA03E004213248FEF7CFFA10
:101F500040F225513048FFF703FEC0B12E48FFF78D
:101F6000A0FD2E49096808702C480068401C2B49C8
:101F700008602B480068401C294908600846006832
:101F8000FF2804D30020086026482449086010BDBB
:101F900010B502214807FFF74CFCA0B10221480709
:101FA000FFF758FC4FF08040FFF724FC1E490880E3
:101FB000084600881D4A1288104481B24FF08040C4
:101FC000FFF708FC18E004210807FFF732FC98B17E
:101FD00004210807FFF73EFC4FF08040FFF70DFC9F
:101FE0001149088008460088114A1288104481B2BD
:101FF0004FF08040FFF7F0FB4FF08040FFF707FC09
:102000000949088000214FF08040FFF7DFFB10BD39
:10201000000C014000140140003801401C01002068
:10202000140000203001002026010020280100209B
:102030002A01002008B501213C20FEF743FC4FF4A3
:102040008070ADF8000010208DF8030003208DF89B
:1020500002006946F648FEF79FF90420ADF800003B
:1020600010208DF8030003208DF802006946F14826
:10207000FEF792F942F20200ADF8000048208DF818
:10208000030003208DF802006946EB48FEF784F94F
:102090000120ADF8000028208DF8030003208DF802
:1020A00002006946E248FEF777F94FF48060ADF828
:1020B000000004208DF803006946DD48FEF76CF946
:1020C0004FF40070ADF8000003208DF802001820D6
:1020D0008DF803006946D648FEF75EF908BD10B5D5
:1020E00001210846FEF7E1FB01218803FEF7EAFB28
:1020F00001210846FEF7F3FB10BD08B500214FF0A3
:102100000060FEF7ABF84FF4E060FEF76FF82520B3
:102110008DF8000000208DF801008DF802000120EC
:102120008DF803006846FEF766F81C208DF8000065
:1021300000208DF8010001208DF802008DF80300C9
:102140006846FEF758F808BD1FB54FF416500090CA
:102150000020ADF80400ADF80600ADF80800ADF8B9
:102160000C000C20ADF80A006946B448FFF7BFFB2D
:10217000012240F22551B148FFF733FC0121AF485D
:10218000FFF723FC1FBD00B587B04FF6FF70ADF819
:1021900014000020ADF81000ADF81600ADF81200E4
:1021A00004A94FF08040FEF7E0FD0122042108075A
:1021B000FFF709F90020ADF800000120ADF802009A
:1021C0009F480088ADF806000020ADF80800694679
:1021D0004FF08040FEF7E2FD00214FF08040FFF716
:1021E0007BF90120ADF8020096480088ADF80600A2
:1021F00069464FF08040FEF708FE00214FF0804016
:10220000FFF773F9012206219007FFF74FF801212C
:102210008807FFF730F807B000BD00B587B001218F
:1022200041F20400FEF74EFBE020ADF8040001206F
:102230008DF8060018208DF8070001A97C48FEF7EC
:10224000ABF80020ADF808004FF48270ADF80A003A
:102250000020ADF80C00ADF80E00ADF810004FF402
:102260000070ADF812001820ADF814000020ADF891
:1022700016000720ADF8180002A97348FEF7B6FB58
:1022800001217148FEF74FFC07B000BD00B587B0D3
:1022900001218803FEF723FB01210820FEF712FB32
:1022A0004FF46040ADF8040003208DF806001820BC
:1022B0008DF8070001A96548FEF76EF84FF48050CD
:1022C000ADF8040003208DF8060010208DF80700FB
:1022D00001A95E48FEF760F84FF480515B48FEF7B5
:1022E00008F90020ADF808004FF48270ADF80A003C
:1022F0000020ADF80C000220ADF80E000120ADF872
:1023000010004002ADF812000020ADF81400ADF846
:1023100016000720ADF8180002A94D48FEF766FB2D
:1023200001214B48FEF7FFFB07B000BD30B549481F
:1023300000684FF47A72B0FBF2F1B1F1807F00D304
:102340001DE021F07F40401E4FF0E0225061501709
:102350000F22002807DA13071D0E3F4B00F00F0471
:10236000241F1D5503E013071C0E3C4B1C5400BFDB
:1023700000204FF0E02290610720106100BF30BDC7
:102380003749086000BF364909680029FBD170470A
:102390003348006820B132480068401E3049086068
:1023A00070470246002105E0491CB1F5FA6F01D9DA
:1023B000002070472448008910F0020FF4D0224812
:1023C0008281002105E0491CB1F5FA6F01D9002096
:1023D000EFE71D48008910F0010FF4D01A488089FA
:1023E000C0B2E6E70246002105E0491CB1F5FA6FEC
:1023F00001D90020704716480830008810F0020FFD
:10240000F3D013480C300280002105E0491CB1F5DF
:10241000FA6F01D90020EDE70D480830008810F070
:10242000010FF3D00A480C300088C0B2E2E7000088
:102430000008014000140140001001400038014034
:10244000280100202A01002000300140000C01403A
:1024500000380040A828000818ED00E000E400E083
:102460002C01002008B501211420FEF72BFA1020C2
:10247000ADF800008DF8030001208DF802006946D8
:10248000E448FDF789FF1021E248FEF730F81020FC
:10249000ADF800008DF8030001208DF802006946B8
:1024A000DD48FDF779FF1021DB48FEF720F82020FA
:1024B000ADF8000048208DF8030001208DF80200DF
:1024C0006946D548FDF768FFFFF7A7FE1021D14800
:1024D000FEF70FF81021D048FEF709F808BD10B537
:1024E0000446CE4800884FF6C7710840CB490880A3
:1024F0001CB908460088088017E0012C06D1C7489F
:10250000008840F01000C54908800EE0022C06D17A
:10251000C248008840F01800C049088005E0BF4864
:10252000008840F03800BD4908800121BB48FEF713
:10253000FAFA10BD70B50546002405E0601CC4B26F
:10254000C82C01DD002070BD0221B448FEF76FFBEE
:102550000028F3D02946B148FEF716FB002405E019
:10256000601CC4B2C82C01DD0020ECE70121AB489F
:10257000FEF75DFB0028F3D0A848FEF707FBC0B2CA
:10258000E1E72DE9F04107460D4616461021A24825
:10259000FDF7AFFF3846FFF7CDFF8046002405E08A
:1025A000FF20FFF7C7FF2855601CC4B2B442F7DB19
:1025B00010219948FDF79BFF4046BDE8F0812DE9C9
:1025C000F04107460C46154610219348FDF791FF50
:1025D0003846FFF7AFFF8046002605E014F8010BF0
:1025E000FFF7A8FF701CC6B2AE42F7DB10218A4885
:1025F000FDF77DFF4046BDE8F0811CB588A103C909
:10260000CDE900010220FFF76AFF0522694630206C
:10261000FFF7D5FF052269461020FFF7B2FF00241F
:1026200006E01DF80400A52800D003E0601CC4B239
:10263000052CF6DB00BF052C01D001201CBD0020BD
:10264000FCE770B505460C4610217348FDF751FFB5
:102650002846FFF76FFF06462046FFF76BFF102165
:102660006D48FDF744FF304670BD70B5044610213B
:102670006948FDF73EFF2046FFF75CFFFF20FFF7AC
:1026800059FF054610216448FDF731FF284670BD0B
:1026900070B505460220FFF722FF10215D48FDF7C7
:1026A00028FF01222946A020FFF789FF1021594861
:1026B000FDF71DFF00BF20215748FDF7FEFE002853
:1026C000F9D10720FFF7D1FF044621462720FFF765
:1026D000B8FF14F0100F05D0FF21E120FFF7B1FF84
:1026E000102070BD14F0200F01D02020F9E7FF204A
:1026F000F7E72DE9F04105460E460120FFF7EFFE12
:102700000720FFF7B2FF044604F00E0721462720FA
:10271000FFF797FF14F0400F1BD017B1022F0CD119
:1027200005E0012229466120FFF72BFF06E0012288
:1027300031466120FFF725FF00E000BF00BFFF2109
:10274000E220FFF77EFF6420FFF71AFE0020BDE8BD
:10275000F0810120FBE710B510212E48FDF7C9FEDE
:10276000052231492A20FFF72AFF05222F492B2075
:10277000FFF725FF3F212120FFF763FF3F212220A4
:10278000FFF75FFF00212520FFF75BFF01213120CC
:10279000FFF757FF01213220FFF753FF07212620C3
:1027A000FFF74FFF0F212020FFF74BFF10211948A3
:1027B000FDF79DFE10BD10B510211648FDF799FEDE
:1027C00005221B493020FFF7FAFE052216492A2070
:1027D000FFF7F5FE01212120FFF733FF0121222021
:1027E000FFF72FFF1A212420FFF72BFF2821252098
:1027F000FFF727FF0F212620FFF723FF0E212020C0
:10280000FFF71FFF10210348FDF771FEC820FFF7F7
:10281000B7FD10BD0008014000100140003001402C
:10282000A5A5A5A5A5000000C6280008CB2800087E
:10283000BC280008704770477047754600F028F8BC
:10284000AE4605006946534620F00700854618B09D
:1028500020B5FFF7CDF9BDE820404FF000064FF05E
:1028600000074FF000084FF0000B21F00701AC46C5
:10287000ACE8C009ACE8C009ACE8C009ACE8C009E4
:102880008D4670470446AFF300802046FDF7A7FC55
:10289000004870473002002001491820ABBEFEE717
:1028A000260002007047000000A24A0400A24A0469
:1028B00000A24A040051250200A24A043443101029
:1028C0000135A1B3C9DA344310100135A1B3C9DA17
:1028D000F028000800000020300100006C01000812
:1028E000102900083001002060030000A801000842
:1028F0005140110102030401020304060708090202
:1029000004060803FE0203041101010154C0008003
:0400000508000131BD
:00000001FF
